:020000040800F2
:1000000000500020C5180008D5160008DB160008AF
:10001000E1160008E7160008ED16000800000000D1
:10002000000000000000000000000000F3160008BF
:10003000FF160008000000000B1700081717000843
:100040000D1900080D1900080D1900080D190008F8
:100050000D1900080D1900080D1900080D190008E8
:100060000D1900080D1900080D1900080D190008D8
:100070000D1900080D1900080D1900080D190008C8
:100080000D1900080D1900080D1900080D190008B8
:100090000D1900080D1900080D1900080D190008A8
:1000A0000D1900080D1900080D1900080D19000898
:1000B0000D1900080D1900080D1900080D19000888
:1000C0000D1900080D1900080D1900080D19000878
:1000D0000D190008251700080D1900080D19000852
:1000E0000D1900080D1900080D1900080000000086
:1000F0000000000000000000000000000000000000
:0C01000000000000000000005FF808F1A3
:1001100010B5054C237833B9044B13B10448AFF341
:1001200000800123237010BDDC01002000000000CE
:100130004C73000808B5034B1BB103490348AFF3E8
:10014000008008BD00000000E00100204C730008A2
:10015000034613F8012B002AFBD1181A0138704707
:1001600081F0004102E000BF83F0004330B54FEA68
:1001700041044FEA430594EA050F08BF90EA020FD5
:100180001FBF54EA000C55EA020C7FEA645C7FEA68
:10019000655C00F0E2804FEA5454D4EB5555B8BF8B
:1001A0006D420CDD2C4480EA020281EA030382EAFC
:1001B000000083EA010180EA020281EA0303362D8E
:1001C00088BF30BD11F0004F4FEA01314FF4801C61
:1001D0004CEA113102D0404261EB410113F0004F73
:1001E0004FEA03334CEA133302D0524263EB43032A
:1001F00094EA050F00F0A780A4F10104D5F1200EC8
:100200000DDB02FA0EFC22FA05F2801841F1000122
:1002100003FA0EF2801843FA05F359410EE0A5F1F6
:1002200020050EF1200E012A03FA0EFC28BF4CF027
:10023000020C43FA05F3C01851EBE37101F00045DD
:1002400007D54FF0000EDCF1000C7EEB00006EEBEA
:100250000101B1F5801F1BD3B1F5001F0CD3490874
:100260005FEA30004FEA3C0C04F101044FEA4452CB
:1002700012F5800F80F09A80BCF1004F08BF5FEA52
:10028000500C50F1000041EB045141EA050130BD32
:100290005FEA4C0C404141EB0101013C28BFB1F544
:1002A000801FE9D291F0000F04BF01460020B1FA8F
:1002B00081F308BF2033A3F10B03B3F120020CDA62
:1002C0000C3208DD02F1140CC2F10C0201FA0CF040
:1002D00021FA02F10CE002F11402D8BFC2F1200CA5
:1002E00001FA02F120FA0CFCDCBF41EA0C0190405B
:1002F000E41AA2BF01EB0451294330BD6FEA0404A4
:100300001F3C1CDA0C340EDC04F11404C4F120028E
:1003100020FA04F001FA02F340EA030021FA04F3A0
:1003200045EA030130BDC4F10C04C4F1200220FAF7
:1003300002F001FA04F340EA0300294630BD21FA35
:1003400004F0294630BD94F0000F83F4801306BFFB
:1003500081F480110134013D4EE77FEA645C18BFEF
:100360007FEA655C29D094EA050F08BF90EA020F86
:1003700005D054EA000C04BF1946104630BD91EA7E
:10038000030F1EBF0021002030BD5FEA545C05D181
:100390004000494128BF41F0004130BD14F58004C0
:1003A0003CBF01F5801130BD01F0004545F0FE4134
:1003B00041F470014FF0000030BD7FEA645C1ABF69
:1003C000194610467FEA655C1CBF0B46024650EAA0
:1003D000013406BF52EA033591EA030F41F40021CC
:1003E00030BD00BF90F0000F04BF0021704730B552
:1003F0004FF4806404F132044FF000054FF0000127
:1004000050E700BF90F0000F04BF0021704730B5E7
:100410004FF4806404F1320410F0004548BF4042BC
:100420004FF000013EE700BF42004FEAE2014FEA11
:1004300031014FEA02701FBF12F07F4393F07F4FEC
:1004400081F06051704732F07F4208BF704793F0EF
:100450007F4F04BF41F40021704730B54FF4607402
:1004600001F0004521F000411CE700BF50EA010205
:1004700008BF704730B54FF000050AE050EA0102AE
:1004800008BF704730B511F0004502D5404261EB1E
:1004900041014FF4806404F132045FEA915C3FF45F
:1004A000D8AE4FF003025FEADC0C18BF03325FEAFC
:1004B000DC0C18BF033202EBDC02C2F1200300FAAD
:1004C00003FC20FA02F001FA03FE40EA0E0021FAD2
:1004D00002F11444BDE600BF70B54FF0FF0C4CF4C0
:1004E000E06C1CEA11541DBF1CEA135594EA0C0F72
:1004F00095EA0C0F00F0DEF82C4481EA030621EAAD
:100500004C5123EA4C5350EA013518BF52EA0335E7
:1005100041F4801143F4801338D0A0FB02CE4FF099
:100520000005E1FB02E506F00042E0FB03E54FF0C9
:100530000006E1FB03569CF0000F18BF4EF0010EC1
:10054000A4F1FF04B6F5007F64F5407404D25FEABD
:100550004E0E6D4146EB060642EAC62141EA555170
:100560004FEAC52040EA5E504FEACE2EB4F1FD0CB2
:1005700088BFBCF5E06F1ED8BEF1004F08BF5FEA30
:10058000500E50F1000041EB045170BD06F00046E2
:1005900046EA010140EA020081EA0301B4EB5C048F
:1005A000C2BFD4EB0C0541EA045170BD41F4801187
:1005B0004FF0000E013C00F3AB8014F1360FDEBFAC
:1005C000002001F0004170BDC4F10004203C35DA88
:1005D0000C341BDC04F11404C4F1200500FA05F30B
:1005E00020FA04F001FA05F240EA020001F00042AC
:1005F00021F0004110EBD37021FA04F642EB060122
:100600005EEA430E08BF20EAD37070BDC4F10C044B
:10061000C4F1200500FA04F320FA05F001FA04F20F
:1006200040EA020001F0004110EBD37041F10001FB
:100630005EEA430E08BF20EAD37070BDC4F1200506
:1006400000FA05F24EEA020E20FA04F301FA05F26E
:1006500043EA020321FA04F001F0004121FA04F216
:1006600020EA020000EBD3705EEA430E08BF20EAE6
:10067000D37070BD94F0000F0FD101F00046400020
:1006800041EB010111F4801F08BF013CF7D041EAA2
:10069000060195F0000F18BF704703F000465200A6
:1006A00043EB030313F4801F08BF013DF7D043EA77
:1006B0000603704794EA0C0F0CEA135518BF95EA2D
:1006C0000C0F0CD050EA410618BF52EA4306D1D1B4
:1006D00081EA030101F000414FF0000070BD50EAD3
:1006E000410606BF1046194652EA430619D094EA5D
:1006F0000C0F02D150EA013613D195EA0C0F05D147
:1007000052EA03361CBF104619460AD181EA03019A
:1007100001F0004141F0FE4141F470014FF0000052
:1007200070BD41F0FE4141F4780170BD70B54FF0ED
:10073000FF0C4CF4E06C1CEA11541DBF1CEA13556D
:1007400094EA0C0F95EA0C0F00F0A7F8A4EB05044F
:1007500081EA030E52EA03354FEA013100F0888046
:100760004FEA03334FF0805545EA131343EA12630F
:100770004FEA022245EA111545EA10654FEA0026C4
:100780000EF000419D4208BF964244F1FD0404F57D
:10079000407402D25B084FEA3202B61A65EB0305D9
:1007A0005B084FEA32024FF480104FF4002CB6EB96
:1007B000020E75EB030E22BFB61A754640EA0C0016
:1007C0005B084FEA3202B6EB020E75EB030E22BF56
:1007D000B61A754640EA5C005B084FEA3202B6EB97
:1007E000020E75EB030E22BFB61A754640EA9C0056
:1007F0005B084FEA3202B6EB020E75EB030E22BF26
:10080000B61A754640EADC0055EA060E18D04FEAE3
:10081000051545EA16754FEA06164FEAC30343EA83
:1008200052734FEAC2025FEA1C1CC0D111F4801F50
:100830000BD141EA00014FF000004FF0004CB6E749
:1008400011F4801F04BF01430020B4F1FD0C88BFE8
:10085000BCF5E06F3FF6AFAEB5EB030C04BFB6EBF3
:10086000020C5FEA500C50F1000041EB045170BDE6
:100870000EF0004E4EEA113114EB5C04C2BFD4EB13
:100880000C0541EA045170BD41F480114FF0000E97
:10089000013C90E645EA060E8DE60CEA135594EA13
:1008A0000C0F08BF95EA0C0F3FF43BAF94EA0C0F16
:1008B0000AD150EA01347FF434AF95EA0C0F7FF48B
:1008C00025AF104619462CE795EA0C0F06D152EADF
:1008D00003353FF4FDAE1046194622E750EA4106C3
:1008E00018BF52EA43067FF4C5AE50EA41047FF4D4
:1008F0000DAF52EA43057FF4EBAE12E74FF0FF3C39
:1009000006E000BF4FF0010C02E000BF4FF0010C09
:100910004DF804CD4FEA410C7FEA6C5C4FEA430C82
:1009200018BF7FEA6C5C1BD001B050EA410C0CBFD1
:1009300052EA430C91EA030F02BF90EA020F002033
:10094000704710F1000F91EA030F58BF994208BF9A
:1009500090422CBFD8176FEAE37040F00100704757
:100960004FEA410C7FEA6C5C02D150EA013C07D1AE
:100970004FEA430C7FEA6C5CD6D152EA033CD3D0F9
:100980005DF8040B704700BF8446104662468C46F3
:100990001946634600E000BF01B5FFF7B7FF002826
:1009A00048BF10F1000F01BD4DF808EDFFF7F4FF4F
:1009B0000CBF012000205DF808FB00BF4DF808EDDA
:1009C000FFF7EAFF34BF012000205DF808FB00BFFD
:1009D0004DF808EDFFF7E0FF94BF012000205DF81F
:1009E00008FB00BF4DF808EDFFF7CEFF94BF0120D4
:1009F00000205DF808FB00BF4DF808EDFFF7C4FFCD
:100A000034BF012000205DF808FB00BF4FEA410C15
:100A10007FEA6C5C02D150EA013C0AD14FEA430CF8
:100A20007FEA6C5C02D152EA033C02D14FF0000035
:100A300070474FF0010070474FEA410212F5001273
:100A400015D211D56FF47873B3EB625212D94FEA15
:100A5000C12343F0004343EA505311F0004F23FAFF
:100A600002F018BF404270474FF00000704750EA54
:100A7000013005D111F0004008BF6FF00040704711
:100A80004FF00000704700BF80F0004002E000BF60
:100A900081F0004142001FBF5FEA410392EA030F69
:100AA0007FEA226C7FEA236C6AD04FEA1262D2EBB3
:100AB0001363C1BFD218414048404140B8BF5B42B8
:100AC000192B88BF704710F0004F40F4000020F051
:100AD0007F4018BF404211F0004F41F4000121F067
:100AE0007F4118BF494292EA030F3FD0A2F10102B1
:100AF00041FA03FC10EB0C00C3F1200301FA03F1EF
:100B000000F0004302D5494260EB4000B0F5000F11
:100B100013D3B0F1807F06D340084FEA310102F1D0
:100B20000102FE2A51D2B1F1004F40EBC25008BF82
:100B300020F0010040EA03007047490040EB00004C
:100B4000013A28BFB0F5000FEDD2B0FA80FCACF14D
:100B5000080CB2EB0C0200FA0CF0AABF00EBC2507A
:100B600052421843BCBFD0401843704792F0000F68
:100B700081F4000106BF80F400000132013BB5E7BB
:100B80004FEA41037FEA226C18BF7FEA236C21D031
:100B900092EA030F04D092F0000F08BF0846704796
:100BA00090EA010F1CBF0020704712F07F4F04D164
:100BB000400028BF40F00040704712F100723CBF77
:100BC00000F50000704700F0004343F0FE4040F4A1
:100BD000000070477FEA226216BF08467FEA23635F
:100BE0000146420206BF5FEA412390EA010F40F44A
:100BF000800070474FF0000304E000BF10F0004396
:100C000048BF40425FEA000C08BF704743F096437C
:100C100001464FF000001CE050EA010208BF704797
:100C20004FF000030AE000BF50EA010208BF70471E
:100C300011F0004302D5404261EB41015FEA010C33
:100C400002BF84460146002043F0B64308BFA3F12B
:100C50008053A3F50003BCFA8CF2083AA3EBC2530D
:100C600010DB01FA02FC634400FA02FCC2F120022C
:100C7000BCF1004F20FA02F243EB020008BF20F063
:100C80000100704702F1200201FA02FCC2F12002C9
:100C900050EA4C0021FA02F243EB020008BF20EABE
:100CA000DC7070474FF0FF0C1CEAD0521EBF1CEAEC
:100CB000D15392EA0C0F93EA0C0F6FD01A4480EADA
:100CC000010C400218BF5FEA41211ED04FF00063C3
:100CD00043EA501043EA5111A0FB01310CF00040EF
:100CE000B1F5000F3EBF490041EAD3715B0040EA15
:100CF000010062F17F02FD2A1DD8B3F1004F40EBE5
:100D0000C25008BF20F00100704790F0000F0CF0B7
:100D1000004C08BF49024CEA502040EA51207F3A7B
:100D2000C2BFD2F1FF0340EAC250704740F4000056
:100D30004FF00003013A5DDC12F1190FDCBF00F047
:100D400000407047C2F10002410021FA02F1C2F1F5
:100D5000200200FA02FC5FEA310040F1000053EA91
:100D60004C0308BF20EADC70704792F0000F00F0DF
:100D7000004C02BF400010F4000F013AF9D040EAE5
:100D80000C0093F0000F01F0004C02BF490011F479
:100D9000000F013BF9D041EA0C018FE70CEAD15377
:100DA00092EA0C0F18BF93EA0C0F0AD030F0004CF7
:100DB00018BF31F0004CD8D180EA010000F00040AB
:100DC000704790F0000F17BF90F0004F084691F069
:100DD000000F91F0004F14D092EA0C0F01D14202A3
:100DE0000FD193EA0C0F03D14B0218BF084608D16C
:100DF00080EA010000F0004040F0FE4040F40000B6
:100E0000704740F0FE4040F4400070474FF0FF0C48
:100E10001CEAD0521EBF1CEAD15392EA0C0F93EA8F
:100E20000C0F69D0A2EB030280EA010C49024FEAE1
:100E3000402037D04FF0805343EA111143EA10139A
:100E40000CF000408B4238BF5B0042F17D024FF452
:100E5000000C8B4224BF5B1A40EA0C00B3EB510F2D
:100E600024BFA3EB510340EA5C00B3EB910F24BF16
:100E7000A3EB910340EA9C00B3EBD10F24BFA3EB9B
:100E8000D10340EADC001B0118BF5FEA1C1CE0D163
:100E9000FD2A3FF650AF8B4240EBC25008BF20F016
:100EA000010070470CF0004C4CEA50207F32C2BF6A
:100EB000D2F1FF0340EAC250704740F400004FF007
:100EC0000003013A37E792F0000F00F0004C02BF38
:100ED000400010F4000F013AF9D040EA0C0093F002
:100EE000000F01F0004C02BF490011F4000F013B5C
:100EF000F9D041EA0C0195E70CEAD15392EA0C0FC4
:100F000008D142027FF47DAF93EA0C0F7FF470AFFB
:100F1000084676E793EA0C0F04D14B023FF44CAF3E
:100F200008466EE730F0004C18BF31F0004CCAD1D3
:100F300030F000427FF45CAF31F000437FF43CAF0F
:100F40005FE700BF80B58AB002AF78603960AC233C
:100F5000FB77FB7F3B7233237B720023BB7207F16D
:100F600008024FF0FF33009303237021786801F0EB
:100F70000FFA0346BB77BB7F002B01D0BB7F56E047
:100F8000502000F027FD07F10C024FF0FF330093D3
:100F900007237021786801F0F9FA0346BB77BB7F1D
:100FA000002B01D0BB7F42E03B7B5BB2002B01DA20
:100FB00001233CE07B7B1A04BB7B1B021343FA7BBF
:100FC00013431B11BB61FB7B1B0403F470223B7CAE
:100FD0001B0213437A7C13437B61B869FFF70AFE57
:100FE00003464FF093411846FFF710FF034612499E
:100FF0001846FFF757FE03461A463B685A60786961
:10100000FFF7F8FD03464FF093411846FFF7FEFE49
:1010100003460A491846FFF745FE034608491846A5
:10102000FFF736FD03461A463B681A600023184650
:101030002037BD4680BD00BF0000C84200004843C5
:101040000000484280B586B002AF0346FB71FB79D1
:1010500023F00F03FB73FB791B01BB73FB7B43F096
:101060000C03DBB23B72FB7B43F00803DBB27B7209
:10107000BB7B43F00C03DBB2BB72BB7B43F00803CA
:10108000DBB2FB7207F108026423009304234221C0
:10109000034801F07DF900BF1037BD4680BD00BF99
:1010A0000C02002080B586B002AF0346FB71FB79CD
:1010B00023F00F03FB73FB791B01BB73FB7B43F036
:1010C0000D03DBB23B72FB7B43F00903DBB27B72A7
:1010D000BB7B43F00D03DBB2BB72BB7B43F0090368
:1010E000DBB2FB7207F10802642300930423422160
:1010F000034801F04DF900BF1037BD4680BD00BF69
:101100000C02002080B500AF3320FFF79BFF322098
:10111000FFF798FF322000F05DFC2820FFF792FFD8
:10112000322000F057FC0120FFF78CFF322000F046
:1011300051FC0620FFF786FF322000F04BFC0C200C
:10114000FFF780FF322000F045FC0220FFF77AFF16
:10115000322000F03FFC8020FFF774FF00BF80BD0D
:1011600080B582B000AF786006E07B685A1C7A6078
:101170001B781846FFF796FF7B681B78002BF4D18D
:1011800000BF00BF0837BD4680BD80B500AF01205D
:10119000FFF758FF00BF80BD80B584B000AF786016
:1011A00039607B68012B08D17B68DAB23B68DBB21F
:1011B0001344DBB27F33FB7308E03B68DBB24033A0
:1011C000DBB25BB263F07F035BB2FB73FB7B184661
:1011D000FFF738FF00BF1037BD4680BD80B500AFB8
:1011E00000F096FB00F06EF800F02EF900F0A6F883
:1011F00000F0D2F800F0FEF8FFF784FF26492748F8
:10120000FFF7A0FE0346002B3FD1234B1B68184677
:10121000FFF70AF902460B462149224803F05EFE19
:101220001D4B5B681846FFF7FFF802460B461E4948
:101230001E4803F053FE1D4B1A4A1D491D4803F07A
:101240004DFE1C48FEF784FF03469AB24FF47A73B2
:101250001849194802F0EAFB00210120FFF79CFF22
:101260001048FFF77DFF00210020FFF795FF0F4892
:10127000FFF776FF41F2883000F0ACFBFFF785FF07
:1012800020210E4800F026FFB8E7FFF77EFF0C484C
:10129000FFF766FFB2E700BF040200200C02002047
:1012A000687300083403002074730008B40200203F
:1012B00080730008C4020020EC02002000080140F6
:1012C0008873000880B590B000AF07F1180328229A
:1012D0000021184603F09AF93B1D00221A605A605B
:1012E0009A60DA601A610223BB610123BB6210239A
:1012F000FB6200237B6307F11803184601F038FFF7
:101300000346002B01D000F0DDF80F237B600023A3
:10131000BB600023FB6000233B6100237B613B1D1E
:101320000021184602F0A4F90346002B01D000F07A
:10133000C9F800BF4037BD4680BD000080B500AF92
:10134000124B134A1A60114B124A5A600F4B00227B
:101350009A600E4B0022DA600C4B4FF480421A6107
:101360000A4B00225A61094B00229A61074B002266
:10137000DA61064B00221A62044800F0C5FE0346FB
:10138000002B01D000F09EF800BF80BD0C020020B1
:1013900000540040A086010080B500AF124B134AF4
:1013A0001A60114B124A5A600F4B00229A600E4B82
:1013B0000022DA600C4B4FF480421A610A4B002283
:1013C0005A61094B00229A61074B0022DA61064BF1
:1013D00000221A62044800F097FE0346002B01D059
:1013E00000F070F800BF80BD60020020005800408F
:1013F000A086010080B500AF114B124A1A60104B55
:101400004FF416525A600E4B00229A600C4B002289
:10141000DA600B4B00221A61094B0C225A61084B0F
:1014200000229A61064B0022DA61054802F0AEFA0A
:101430000346002B01D000F045F800BF80BD00BF7F
:10144000EC0200200038014080B586B000AF07F103
:10145000080300221A605A609A60DA60174B9B6991
:10146000164A43F004039361144B9B6903F0040391
:101470007B607B68114B9B69104A43F008039361C2
:101480000E4B9B6903F008033B603B680022202160
:101490000B4800F007FE2023BB600123FB60002304
:1014A0003B6102237B6107F108031946044800F001
:1014B00075FC00BF1837BD4680BD00BF001002405C
:1014C0000008014080B400AF72B600BFFEE7000024
:1014D00080B485B000AF154B9B69144A43F00103FB
:1014E0009361124B9B6903F00103BB60BB680F4B18
:1014F000DB690E4A43F08053D3610C4BDB6903F088
:1015000080537B607B680A4B5B68FB60FB6823F061
:10151000E063FB60FB6843F00073FB60044AFB6818
:10152000536000BF1437BD4680BC704700100240B6
:101530000000014080B58CB000AF786007F11C035B
:1015400000221A605A609A60DA607B681B68324A2F
:10155000934233D1314B9B69304A43F00803936186
:101560002E4B9B6903F00803BB61BB694FF44073CA
:10157000FB6112233B620323BB6207F11C03194684
:10158000274800F00BFC274B5B68FB62FB6A43F0CB
:10159000E063FB62FB6A43F00203FB62214AFB6AE1
:1015A00053601E4BDB691D4A43F40013D3611B4B90
:1015B000DB6903F400137B617B6929E07B681B68AE
:1015C000194A934224D1154B9B69144A43F00803EE
:1015D0009361124B9B6903F008033B613B694FF435
:1015E0004063FB6112233B620323BB6207F11C03D0
:1015F00019460B4800F0D2FB084BDB69074A43F45D
:101600008003D361054BDB6903F48003FB60FB6857
:1016100000BF3037BD4680BD00540040001002407E
:10162000000C0140000001400058004080B588B027
:1016300000AF786007F1100300221A605A609A60C8
:10164000DA607B681B68204A934239D11F4B9B6943
:101650001E4A43F4804393611C4B9B6903F480430F
:10166000FB60FB68194B9B69184A43F004039361C4
:10167000164B9B6903F00403BB60BB684FF4007317
:101680003B6102237B610323FB6107F110031946D1
:101690000F4800F083FB4FF480633B6100237B61C4
:1016A0000023BB6107F110031946094800F076FBDF
:1016B00000220121252000F088FA252000F0A1FA5F
:1016C00000BF2037BD4680BD0038014000100240F9
:1016D0000008014080B400AFFEE780B400AFFEE731
:1016E00080B400AFFEE780B400AFFEE780B400AF87
:1016F000FEE780B400AF00BFBD4680BC704780B439
:1017000000AF00BFBD4680BC704780B400AF00BFD3
:10171000BD4680BC704780B500AF00F03FF900BF08
:1017200080BD000080B500AF024802F00BFA00BF98
:1017300080BD00BFEC02002080B400AF012318463A
:10174000BD4680BC704780B582B000AF786039601C
:1017500002F032FF034616221A604FF0FF3318469C
:101760000837BD4680BD80B582B000AF78604FF0CD
:10177000FF317868FFF7E7FFFEE780B586B000AF7E
:10178000F860B9607A6000237B610AE0AFF3008003
:101790000146BB685A1CBA60CAB21A707B69013331
:1017A0007B617A697B689A42F0DB7B681846183760
:1017B000BD4680BD80B586B000AFF860B9607A6084
:1017C00000237B6109E0BB685A1CBA601B7818468D
:1017D000AFF300807B6901337B617A697B689A4251
:1017E000F1DB7B6818461837BD4680BD80B483B0F6
:1017F00000AF78604FF0FF3318460C37BD4680BC11
:10180000704780B483B000AF786039603B684FF4B4
:1018100000525A60002318460C37BD4680BC704702
:1018200080B483B000AF7860012318460C37BD4602
:1018300080BC704780B485B000AFF860B9607A6052
:10184000002318461437BD4680BC704780B586B06B
:1018500000AF7860144A154BD31A7B617B693B61FA
:10186000134B1B68002B02D1114B124A1A60104B0C
:101870001A687B6813443A699A4207D202F09CFEC8
:1018800003460C221A604FF0FF3309E0084B1B6837
:10189000FB60074B1A687B681344054A1360FB68BA
:1018A00018461837BD4680BD0050002000040000D7
:1018B000F80100205803002080B400AF00BFBD46EF
:1018C00080BC7047FFF7F8FF0B480C490C4A002317
:1018D00002E0D458C4500433C4188C42F9D3094AE6
:1018E000094C002301E013600432A242FBD302F052
:1018F00069FEFFF773FC704700000020DC01002048
:10190000AC770008DC01002058030020FEE700004F
:1019100080B500AF084B1B68074A43F01003136003
:10192000032000F047F90F2000F008F8FFF7D0FD82
:101930000023184680BD00BF0020024080B582B061
:1019400000AF7860124B1A68124B1B7819464FF49F
:101950007A73B3FBF1F3B2FBF3F3184600F05FF9CF
:101960000346002B01D001230EE07B680F2B0AD821
:10197000002279684FF0FF3000F027F9064A7B68B3
:101980001360002300E0012318460837BD4680BDE0
:1019900000000020080000200400002080B400AFF8
:1019A000054B1B781A46054B1B681344034A13600A
:1019B00000BFBD4680BC70470800002044030020E3
:1019C00080B400AF024B1B681846BD4680BC704710
:1019D0004403002080B584B000AF7860FFF7F0FFCB
:1019E000B8607B68FB60FB68B3F1FF3F05D00A4B32
:1019F0001B781A46FB681344FB6000BFFFF7E0FF4B
:101A00000246BB68D31AFA689A42F7D800BF00BFF3
:101A10001037BD4680BD00BF0800002080B485B0EF
:101A200000AF78607B6803F00703FB600C4BDB685A
:101A3000BB60BA684FF6FF031340BB60FB681A0235
:101A4000BB68134343F0BF6343F40033BB60044AF5
:101A5000BB68D36000BF1437BD4680BC704700BF71
:101A600000ED00E080B400AF044BDB681B0A03F01C
:101A700007031846BD4680BC704700BF00ED00E07C
:101A800080B483B000AF0346FB7197F90730002B99
:101A90000BDBFB7903F01F02064997F907305B095E
:101AA000012000FA02F241F8232000BF0C37BD46A6
:101AB00080BC704700E100E080B483B000AF034613
:101AC0003960FB7197F90730002B0ADB3B68DAB20B
:101AD0000C4997F907301201D2B20B4483F8002366
:101AE0000AE03B68DAB20849FB7903F00F03043BD4
:101AF0001201D2B20B441A7600BF0C37BD4680BC2F
:101B0000704700BF00E100E000ED00E080B489B064
:101B100000AFF860B9607A60FB6803F00703FB610F
:101B2000FB69C3F10703042B28BF0423BB61FB69D6
:101B30000433062B02D9FB69033B00E000237B61E1
:101B40004FF0FF32BB6902FA03F3DA43BB681A4075
:101B50007B699A404FF0FF317B6901FA03F3D94367
:101B60007B680B40134318462437BD4680BC704742
:101B700080B582B000AF78607B68013BB3F1807FB5
:101B800001D301230FE00A4A7B68013B53600F2118
:101B90004FF0FF30FFF790FF054B00229A60044B97
:101BA00007221A60002318460837BD4680BD00BFD3
:101BB00010E000E080B582B000AF78607868FFF791
:101BC0002DFF00BF0837BD4680BD80B586B000AF91
:101BD0000346B9607A60FB7300237B61FFF742FF25
:101BE00078617A68B9687869FFF790FF024697F9DB
:101BF0000F3011461846FFF75FFF00BF1837BD468C
:101C000080BD80B582B000AF0346FB7197F9073005
:101C10001846FFF735FF00BF0837BD4680BD80B5C9
:101C200082B000AF78607868FFF7A2FF03461846DD
:101C30000837BD4680BD80B485B000AF7860002312
:101C4000FB737B6893F82130DBB2022B08D07B68F2
:101C500004229A637B68002283F82020012320E07D
:101C60007B681B681A687B681B6822F00E021A608A
:101C70007B681B681A687B681B6822F001021A6087
:101C80007B681A6C7B68DB6B012101FA02F25A60F7
:101C90007B68012283F821207B68002283F82020C2
:101CA000FB7B18461437BD4680BC704780B584B0B6
:101CB00000AF78600023FB737B6893F82130DBB2C0
:101CC000022B05D07B6804229A630123FB7351E049
:101CD0007B681B681A687B681B6822F00E021A601A
:101CE0007B681B681A687B681B6822F001021A6017
:101CF0007B681B68224A934229D07B681B68214A73
:101D0000934222D07B681B681F4A93421AD07B689B
:101D10001B681E4A934212D07B681B681C4A934280
:101D20000AD07B681B681B4A934202D14FF4801390
:101D30000EE04FF080730BE04FF4803308E04FF477
:101D4000805305E04FF4807302E0102300E001238C
:101D5000114A53607B68012283F821207B680022AE
:101D600083F820207B685B6B002B03D07B685B6B68
:101D700078689847FB7B18461037BD4680BD00BF8A
:101D8000080002401C0002403000024044000240B3
:101D9000580002406C0002400000024080B48BB04A
:101DA00000AF7860396000237B6200233B6269E109
:101DB00001227B6A02FA03F3FB613B681B68FA6944
:101DC0001340BB61BA69FB699A4240F058813B6895
:101DD0005B689A4A93425ED0984A934275D8984A73
:101DE000934258D0964A93426FD8964A934252D023
:101DF000944A934269D8944A93424CD0924A93426F
:101E000063D8924A934246D0904A93425DD8122BAF
:101E10002AD8122B59D801A252F823F0971E000895
:101E2000711E0008831E0008C51E0008CB1E000896
:101E3000CB1E0008CB1E0008CB1E0008CB1E0008DE
:101E4000CB1E0008CB1E0008CB1E0008CB1E0008CE
:101E5000CB1E0008CB1E0008CB1E0008CB1E0008BE
:101E6000791E00088D1E0008794A934213D02CE099
:101E70003B68DB683B6229E03B68DB6804333B621C
:101E800024E03B68DB6808333B621FE03B68DB68AB
:101E90000C333B621AE03B689B68002B02D10423A1
:101EA0003B6213E03B689B68012B05D108233B6232
:101EB0007B68FA691A6109E008233B627B68FA696A
:101EC0005A6103E000233B6200E000BFBB69FF2BC7
:101ED00001D87B6801E07B6804337B61BB69FF2B21
:101EE00002D87B6A9B0002E07B6A083B9B003B6157
:101EF0007B691A680F213B6901FA03F3DB431A403F
:101F0000396A3B6901FA03F31A437B691A603B683B
:101F10005B6803F08053002B00F0B1804D4B9B6950
:101F20004C4A43F0010393614A4B9B6903F0010360
:101F3000BB60BB68484A7B6A9B08023352F8233077
:101F4000FB607B6A03F003039B000F2202FA03F39A
:101F5000DB43FA681340FB607B68404A934213D02E
:101F60007B683F4A93420DD07B683E4A934207D03C
:101F70007B683D4A934201D1032306E0042304E039
:101F8000022302E0012300E000237A6A02F0030248
:101F900092009340FA681343FB602F497B6A9B08C9
:101FA0000233FA6841F823203B685B6803F480132E
:101FB000002B06D02D4B9A682C49BB6913438B60CC
:101FC00006E02A4B9A68BB69DB43284913408B60C3
:101FD0003B685B6803F40013002B06D0234BDA68E0
:101FE0002249BB691343CB6006E0204BDA68BB692A
:101FF000DB431E491340CB603B685B6803F400334E
:10200000002B06D0194B5A681849BB6913434B6023
:1020100006E0164B5A68BB69DB43144913404B601A
:102020003B685B6803F48033002B21D00F4B1A68A8
:102030000E49BB6913430B6021E000BF0000321062
:1020400000003110000022100000211000001210CA
:102050000000111000100240000001400008014083
:10206000000C014000100140001401400004014038
:102070000B4B1A68BB69DB43094913400B607B6A51
:1020800001337B623B681A687B6A22FA03F3002BF8
:102090007FF48EAE00BF00BF2C37BD4680BC7047BA
:1020A0000004014080B483B000AF78600B467B80B1
:1020B00013467B707B78002B03D07A887B681A618B
:1020C00003E07B881A047B681A6100BF0C37BD46A9
:1020D00080BC704780B485B000AF78600B467B80D1
:1020E0007B68DB68FB607A88FB6813401A04FB6836
:1020F000D9437B880B401A437B681A6100BF1437B1
:10210000BD4680BC7047000080B584B000AF7860E9
:102110007B68002B01D101232BE17B6893F83D30D4
:10212000DBB2002B06D17B68002283F83C20786864
:10213000FFF700FA7B68242283F83D207B681B6848
:102140001A687B681B6822F001021A607B681B68B2
:102150001A687B681B6842F400421A607B681B683F
:102160001A687B681B6822F400421A6001F0C8FB01
:10217000F8607B685B68814A934207D8FB68804AB5
:10218000934294BF01230023DBB206E0FB687D4A43
:10219000934294BF01230023DBB2002B01D0012323
:1021A000E7E0FB68784AA2FB03239B0CBB607B68DB
:1021B0001B685B6823F03F017B681B68BA680A43B1
:1021C0005A607B681B681B6A23F03F017B685B6871
:1021D0006A4A934202D8BB68013309E0BB684FF4F6
:1021E000967202FB03F3694AA2FB03239B090133A6
:1021F0007A6812680B4313627B681B68DB6923F4FF
:102200004F4222F0FF027B685B685C498B4219D821
:10221000FB68591E7B685B685B00B1FBF3F3591CDC
:1022200040F6FC730B40002B0AD0FB68591E7B68FC
:102230005B685B00B1FBF3F30133C3F30B0351E0C5
:1022400004234FE07B689B68002B11D1FB68581E6C
:102250007B6859680B465B000B44B0FBF3F301331A
:10226000C3F30B03002B0CBF01230023DBB212E0EE
:10227000FB68581E7B6859680B469B000B4499000D
:102280000B44B0FBF3F30133C3F30B03002B0CBF80
:1022900001230023DBB2002B01D0012322E07B6865
:1022A0009B68002B0ED1FB68581E7B6859680B4653
:1022B0005B000B44B0FBF3F30133C3F30B0343F4B4
:1022C00000430FE0FB68581E7B6859680B469B0073
:1022D0000B4499000B44B0FBF3F30133C3F30B033E
:1022E00043F44043796809681343CB617B681B68FA
:1022F0001B6823F0C0017B68DA697B681B6A1A439C
:102300007B681B680A431A607B681B689B6823F420
:10231000034323F0FF037A6811697A68D268114396
:102320007A6812680B4393607B681B68DB6823F054
:10233000FF017B685A697B689B691A437B681B684D
:102340000A43DA607B681B681A687B681B6842F086
:1023500001021A607B6800221A647B68202283F8DD
:102360003D207B6800221A637B68002283F83E20B0
:10237000002318461037BD4680BD00BFA08601006F
:102380007F841E00FF083D0083DE1B43D34D621097
:1023900080B588B002AFF8607A601A460B467B8140
:1023A00013463B81FFF70CFB7861FB6893F83D30E7
:1023B000DBB2202B40F0E0807B69009319230122DF
:1023C0007049F86800F09EFC0346002B01D0022300
:1023D000D3E0FB6893F83C30012B01D10223CCE021
:1023E000FB68012283F83C20FB681B681B6803F034
:1023F0000103012B07D0FB681B681A68FB681B6888
:1024000042F001021A60FB681B681A68FB681B68CF
:1024100022F400621A60FB68212283F83D20FB68E9
:10242000102283F83E20FB6800221A64FB687A6859
:102430005A62FB683A895A85FB685B8D9AB2FB68E1
:102440001A85FB68504ADA6279897B693A6AF868CA
:1024500000F008FB0346002B01D001238DE0002390
:102460003B61FB681B685B693B61FB681B689B69A0
:102470003B613B6966E07A69396AF86800F05CFDA7
:102480000346002B0DD0FB681B6C042B07D1FB68A7
:102490001B681A68FB681B6842F400721A6001230B
:1024A0006BE0FB685B6A1A78FB681B681A61FB6863
:1024B0005B6A5A1CFB685A62FB685B8D9BB2013BEE
:1024C0009AB2FB685A85FB681B8D013B9AB2FB6888
:1024D0001A85FB681B685B6903F00403042B1BD19E
:1024E000FB681B8D002B17D0FB685B6A1A78FB68B2
:1024F0001B681A61FB685B6A5A1CFB685A62FB68BE
:102500005B8D9BB2013B9AB2FB685A85FB681B8DC1
:10251000013B9AB2FB681A857A69396AF86800F05B
:1025200053FD0346002B0DD0FB681B6C042B07D119
:10253000FB681B681A68FB681B6842F400721A602B
:1025400001231AE0FB681B8D002B94D1FB681B68EC
:102550001A68FB681B6842F400721A60FB6820224C
:1025600083F83D20FB68002283F83E20FB680022B0
:1025700083F83C20002300E0022318461837BD46AC
:1025800080BD00BF020010000000FFFF80B58CB0CE
:1025900002AFF8607A601A460B467B8113463B8196
:1025A00000233B62FFF70CFA7862FB6893F83D303A
:1025B000DBB2202B40F04B827B6A0093192301226F
:1025C0007F49F86800F09EFB0346002B01D00223F0
:1025D0003EE2FB6893F83C30012B01D1022337E245
:1025E000FB68012283F83C20FB681B681B6803F032
:1025F0000103012B07D0FB681B681A68FB681B6886
:1026000042F001021A60FB681B681A68FB681B68CD
:1026100022F400621A60FB68222283F83D20FB68E6
:10262000102283F83E20FB6800221A64FB687A6857
:102630005A62FB683A895A85FB685B8D9AB2FB68DF
:102640001A85FB685F4ADA6279897B6A3A6BF868B7
:1026500000F08AFA0346002B01D00123F8E1FB6861
:102660001B8D002B13D10023FB61FB681B685B698A
:10267000FB61FB681B689B69FB61FB69FB681B686E
:102680001A68FB681B6842F400721A60CCE1FB68B0
:102690001B8D012B1ED1FB681B681A68FB681B6829
:1026A00022F480621A6072B600BF0023BB61FB682F
:1026B0001B685B69BB61FB681B689B69BB61BB698D
:1026C000FB681B681A68FB681B6842F400721A609A
:1026D00062B635E0FB681B8D022B1ED1FB681B68C0
:1026E0001A68FB681B6842F400621A6072B600BF89
:1026F00000237B61FB681B685B697B61FB681B686F
:102700009B697B617B69FB681B681A68FB681B68B7
:1027100022F480621A6062B612E0FB681B681A68D5
:10272000FB681B6842F480621A6000233B61FB680F
:102730001B685B693B61FB681B689B693B613B698C
:1027400072E1FB681B8D032B00F21F81FB681B8D60
:10275000012B23D17A6A396BF86800F07DFC0346BF
:10276000002B01D0012373E1FB681B681A69FB6829
:102770005B6AD2B21A70FB685B6A5A1CFB685A62C9
:10278000FB681B8D013B9AB2FB681A85FB685B8D69
:102790009BB2013B9AB2FB685A8545E1FB681B8DF1
:1027A000022B52D17B6A00933B6B00220649F868EA
:1027B00000F0A8FA0346002B08D0012348E100BF2F
:1027C000020010000000FFFF0400010072B600BF0D
:1027D000FB681B681A68FB681B6842F400721A6089
:1027E000FB681B681A69FB685B6AD2B21A70FB68E7
:1027F0005B6A5A1CFB685A62FB681B8D013B9AB2EC
:10280000FB681A85FB685B8D9BB2013B9AB2FB6843
:102810005A8562B600BFFB681B681A69FB685B6A71
:10282000D2B21A70FB685B6A5A1CFB685A62FB687A
:102830001B8D013B9AB2FB681A85FB685B8D9BB2CE
:10284000013B9AB2FB685A85EEE07B6A00933B6BD2
:1028500000228149F86800F055FA0346002B01D0A8
:102860000123F5E0FB681B681A68FB681B6822F40B
:1028700080621A6072B600BFFB681B681A69FB6849
:102880005B6AD2B21A70FB685B6A5A1CFB685A62B8
:10289000FB681B8D013B9AB2FB681A85FB685B8D58
:1028A0009BB2013B9AB2FB685A856C4B1B68DB08F4
:1028B0006B4AA2FB03231A0A13469B001344DA0057
:1028C000D31A3B623B6A013B3B623B6A002B18D147
:1028D000FB6800221A63FB68202283F83D20FB6816
:1028E000002283F83E20FB681B6C43F02002FB684B
:1028F0001A6462B600BFFB68002283F83C20012303
:10290000A6E0FB681B685B6903F00403042BD9D1C4
:10291000FB681B681A68FB681B6842F400721A6047
:10292000FB681B681A69FB685B6AD2B21A70FB68A5
:102930005B6A5A1CFB685A62FB681B8D013B9AB2AA
:10294000FB681A85FB685B8D9BB2013B9AB2FB6802
:102950005A8562B600BFFB681B681A69FB685B6A30
:10296000D2B21A70FB685B6A5A1CFB685A62FB6839
:102970001B8D013B9AB2FB681A85FB685B8D9BB28D
:10298000013B9AB2FB685A854EE07A6A396BF86867
:1029900000F062FB0346002B01D0012358E0FB68E6
:1029A0001B681A69FB685B6AD2B21A70FB685B6AC3
:1029B0005A1CFB685A62FB681B8D013B9AB2FB688C
:1029C0001A85FB685B8D9BB2013B9AB2FB685A8506
:1029D000FB681B685B6903F00403042B24D1FB68CC
:1029E0001B8D032B07D1FB681B681A68FB681B68EB
:1029F00022F480621A60FB681B681A69FB685B6AD4
:102A0000D2B21A70FB685B6A5A1CFB685A62FB6898
:102A10001B8D013B9AB2FB681A85FB685B8D9BB2EC
:102A2000013B9AB2FB685A85FB681B8D002B7FF433
:102A300088AEFB68202283F83D20FB68002283F8E3
:102A40003E20FB68002283F83C20002300E00223A4
:102A500018462837BD4680BD040001000000002054
:102A600089B5F81480B588B002AFF8607A603B6031
:102A70000B467B81FB68DB6A7B617B69082B06D098
:102A80007B69012B03D07B6913F5803F08D1FB687C
:102A90001B681A68FB681B6842F480721A600BE0BE
:102AA000FB681B6B122B07D1FB681B681A68FB685D
:102AB0001B6842F480721A603B6800937B680022B6
:102AC0004FF00111F86800F01DF90346002B0DD0FE
:102AD000FB681B681B6803F48073B3F5807F03D128
:102AE000FB684FF400721A64032335E0FB681B692E
:102AF000B3F5804F08D17B89DBB21A46FB681B68AF
:102B000002F0FE021A611BE07B89DB11DBB203F0ED
:102B10000603DBB263F00F03DAB2FB681B681A61CD
:102B20003B687A680E49F86800F066F90346002BA6
:102B300001D0012310E07B89DAB2FB681B681A61BF
:102B40003B687A680749F86800F056F90346002B9D
:102B500001D0012300E0002318461837BD4680BD90
:102B6000080001000200010080B588B002AFF860E3
:102B70007A603B600B467B81FB68DB6A7B61FB68AC
:102B80001B681A68FB681B6842F480621A607B69E4
:102B9000082B06D07B69012B03D07B6913F5803F9E
:102BA00008D1FB681B681A68FB681B6842F48072D6
:102BB0001A600BE0FB681B6B112B07D1FB681B68CD
:102BC0001A68FB681B6842F480721A603B680093C5
:102BD0007B6800224FF00111F86800F093F803467B
:102BE000002B0DD0FB681B681B6803F48073B3F5E2
:102BF000807F03D1FB684FF400721A64032379E0ED
:102C0000FB681B69B3F5804F08D17B89DBB243F0C9
:102C10000103DAB2FB681B681A615FE07B89DB1194
:102C2000DBB203F00603DBB263F00F03DAB2FB683A
:102C30001B681A613B687A683049F86800F0DCF874
:102C40000346002B01D0012354E07B89DAB2FB68F4
:102C50001B681A613B687A682949F86800F0CCF86B
:102C60000346002B01D0012344E000233B61FB68B5
:102C70001B685B693B61FB681B689B693B613B6947
:102C8000FB681B681A68FB681B6842F480721A6054
:102C90003B6800937B6800224FF00111F86800F058
:102CA00031F80346002B0DD0FB681B681B6803F44A
:102CB0008073B3F5807F03D1FB684FF400721A6410
:102CC000032317E07B89DB11DBB203F00603DBB2E1
:102CD00063F00E03DAB2FB681B681A613B687A681E
:102CE0000749F86800F088F80346002B01D001235B
:102CF00000E0002318461837BD4680BD08000100DB
:102D00000200010080B584B000AFF860B9603B609C
:102D10001346FB7148E03B68B3F1FF3F44D0FEF738
:102D20004FFE0246BB69D31A3A689A4202D33B6807
:102D3000002B39D1BB681B0CDBB2012B0DD1FB681A
:102D40001B685B69DA43BB6813409BB2002B0CBF66
:102D500001230023DBB21A460CE0FB681B689B6969
:102D6000DA43BB6813409BB2002B0CBF0123002346
:102D7000DBB21A46FB799A4216D1FB6800221A632D
:102D8000FB68202283F83D20FB68002283F83E2068
:102D9000FB681B6C43F02002FB681A64FB6800228E
:102DA00083F83C20012323E0BB681B0CDBB2012B22
:102DB0000DD1FB681B685B69DA43BB6813409BB2AB
:102DC000002B0CBF01230023DBB21A460CE0FB688A
:102DD0001B689B69DA43BB6813409BB2002B0CBF96
:102DE00001230023DBB21A46FB799A4293D00023D9
:102DF00018461037BD4680BD80B584B000AFF8607E
:102E0000B9607A603B6071E0FB681B685B6903F442
:102E10008063B3F5806F23D1FB681B681A68FB6879
:102E20001B6842F400721A60FB681B686FF48062D2
:102E30005A61FB6800221A63FB68202283F83D2058
:102E4000FB68002283F83E20FB681B6C43F0040201
:102E5000FB681A64FB68002283F83C20012367E0CA
:102E60007B68B3F1FF3F41D0FEF7AAFD02463B6805
:102E7000D31A7A689A4202D37B68002B36D1BB689A
:102E80001B0CDBB2012B0CD1FB681B685B69DA43BE
:102E9000BB6813409BB2002B14BF01230023DBB29D
:102EA0000BE0FB681B689B69DA43BB6813409BB26D
:102EB000002B14BF01230023DBB2002B16D0FB68CC
:102EC00000221A63FB68202283F83D20FB68002261
:102ED00083F83E20FB681B6C43F02002FB681A64F9
:102EE000FB68002283F83C20012321E0BB681B0C17
:102EF000DBB2012B0CD1FB681B685B69DA43BB6852
:102F000013409BB2002B14BF01230023DBB20BE064
:102F1000FB681B689B69DA43BB6813409BB2002BBC
:102F200014BF01230023DBB2002B7FF46DAF00231D
:102F300018461037BD4680BD80B584B000AFF8603C
:102F4000B9607A6034E0F86800F0E3F80346002BDB
:102F500001D0012334E0BB68B3F1FF3F28D0FEF776
:102F60002FFD02467B68D31ABA689A4202D3BB6827
:102F7000002B1DD1FB681B685B6903F08003802B6D
:102F800016D0FB6800221A63FB68202283F83D20DC
:102F9000FB68002283F83E20FB681B6C43F0200294
:102FA000FB681A64FB68002283F83C20012307E0D9
:102FB000FB681B685B6903F08003802BC3D100238F
:102FC00018461037BD4680BD80B584B000AFF860AC
:102FD000B9607A6034E0F86800F09BF80346002B93
:102FE00001D0012334E0BB68B3F1FF3F28D0FEF7E6
:102FF000E7FC02467B68D31ABA689A4202D3BB68E0
:10300000002B1DD1FB681B685B6903F00403042BD4
:1030100016D0FB6800221A63FB68202283F83D204B
:10302000FB68002283F83E20FB681B6C43F0200203
:10303000FB681A64FB68002283F83C20012307E048
:10304000FB681B685B6903F00403042BC3D10023F6
:1030500018461037BD4680BD80B584B000AFF8601B
:10306000B9607A6049E0FB681B685B6903F0100394
:10307000102B19D1FB681B686FF010025A61FB68B6
:1030800000221A63FB68202283F83D20FB6800229F
:1030900083F83E20FB681A6CFB681A64FB68002208
:1030A00083F83C20012330E0FEF78AFC02467B686F
:1030B000D31ABA689A4202D3BB68002B1DD1FB68B1
:1030C0001B685B6903F04003402B16D0FB680022AD
:1030D0001A63FB68202283F83D20FB68002283F8F6
:1030E0003E20FB681B6C43F02002FB681A64FB68FF
:1030F000002283F83C20012307E0FB681B685B6922
:1031000003F04003402BAED1002318461037BD46D4
:1031100080BD80B483B000AF78607B681B685B695A
:1031200003F48063B3F5806F1BD17B681B686FF479
:1031300080625A617B6800221A637B68202283F8D0
:103140003D207B68002283F83E207B681B6C43F0A7
:1031500004027B681A647B68002283F83C20012308
:1031600000E0002318460C37BD4680BC70470000C5
:1031700080B586B000AF78607B68002B01D1012359
:103180006CE27B681B6803F00103002B00F0878072
:10319000924B5B6803F00C03042B0CD08F4B5B68E5
:1031A00003F00C03082B12D18C4B5B6803F48033C3
:1031B000B3F5803F0BD1894B1B6803F40033002B20
:1031C0006CD07B685B68002B68D1012346E27B688A
:1031D0005B68B3F5803F06D1804B1B687F4A43F4A0
:1031E000803313602EE07B685B68002B0CD17B4B37
:1031F0001B687A4A23F480331360784B1B68774A44
:1032000023F4802313601DE07B685B68B3F5A02F77
:103210000CD1724B1B68714A43F4802313606F4BCF
:103220001B686E4A43F4803313600BE06B4B1B68E2
:103230006A4A23F480331360684B1B68674A23F49F
:10324000802313607B685B68002B13D0FEF7B8FB0C
:10325000386108E0FEF7B4FB02463B69D31A642BE1
:1032600001D90323FAE15D4B1B6803F40033002B03
:10327000F0D014E0FEF7A4FB386108E0FEF7A0FBF5
:1032800002463B69D31A642B01D90323E6E1534B71
:103290001B6803F40033002BF0D100E000BF7B6813
:1032A0001B6803F00203002B63D04C4B5B6803F0F8
:1032B0000C03002B0BD0494B5B6803F00C03082B6D
:1032C0001CD1464B5B6803F48033002B16D1434B73
:1032D0001B6803F00203002B05D07B681B69012BE0
:1032E00001D00123BAE13D4B1B6823F0F8027B6853
:1032F0005B69DB00394913430B603AE07B681B696B
:10330000002B20D0364B01221A60FEF759FB3861A2
:1033100008E0FEF755FB02463B69D31A022B01D9A0
:1033200003239BE12D4B1B6803F00203002BF0D01D
:103330002A4B1B6823F0F8027B685B69DB00274996
:1033400013430B6015E0264B00221A60FEF738FB92
:10335000386108E0FEF734FB02463B69D31A022BC2
:1033600001D903237AE11D4B1B6803F00203002BF4
:10337000F0D17B681B6803F00803002B3AD07B6810
:103380009B69002B19D0174B01221A60FEF718FB1E
:10339000386108E0FEF714FB02463B69D31A022BA2
:1033A00001D903235AE10D4B5B6A03F00203002BA2
:1033B000F0D0012000F0CCFA1CE00A4B00221A6089
:1033C000FEF7FEFA38610FE0FEF7FAFA02463B69B3
:1033D000D31A022B08D9032340E100BF001002409A
:1033E00000004242800442429E4B5B6A03F00203AB
:1033F000002BE9D17B681B6803F00403002B00F06D
:10340000A6800023FB75974BDB6903F08053002BEC
:103410000DD1944BDB69934A43F08053D361914BB8
:10342000DB6903F08053BB60BB680123FB758E4BE7
:103430001B6803F48073002B18D18B4B1B688A4ADE
:1034400043F480731360FEF7BBFA386108E0FEF7BF
:10345000B7FA02463B69D31A642B01D90323FDE076
:10346000814B1B6803F48073002BF0D07B68DB6812
:10347000012B06D17B4B1B6A7A4A43F0010313628E
:103480002DE07B68DB68002B0CD1764B1B6A754AFC
:1034900023F001031362734B1B6A724A23F0040387
:1034A00013621CE07B68DB68052B0CD16D4B1B6A3B
:1034B0006C4A43F0040313626A4B1B6A694A43F087
:1034C000010313620BE0674B1B6A664A23F001039A
:1034D0001362644B1B6A634A23F0040313627B6824
:1034E000DB68002B15D0FEF76BFA38610AE0FEF7B7
:1034F00067FA02463B69D31A41F28832934201D9F6
:103500000323ABE0574B1B6A03F00203002BEED002
:1035100014E0FEF755FA38610AE0FEF751FA024668
:103520003B69D31A41F28832934201D9032395E0D3
:103530004C4B1B6A03F00203002BEED1FB7D012BE9
:1035400005D1484BDB69474A23F08053D3617B6840
:10355000DB69002B00F08180424B5B6803F00C03B9
:10356000082B61D07B68DB69022B46D13F4B0022E0
:103570001A60FEF725FA386108E0FEF721FA0246E4
:103580003B69D31A022B01D9032367E0354B1B6833
:1035900003F00073002BF0D17B681B6AB3F5803F0A
:1035A00008D1304B5B6823F400327B689B682D495F
:1035B00013434B602B4B5B6823F474127B68196ACE
:1035C0007B685B6A0B43274913434B60274B0122FF
:1035D0001A60FEF7F5F9386108E0FEF7F1F90246E6
:1035E0003B69D31A022B01D9032337E01D4B1B681B
:1035F00003F00073002BF0D02FE01C4B00221A6068
:10360000FEF7DEF9386108E0FEF7DAF902463B69B9
:10361000D31A022B01D9032320E0124B1B6803F0BD
:103620000073002BF0D118E07B68DB69012B01D11E
:10363000012313E00B4B5B68FB60FB6803F48032F3
:103640007B681B6A9A4206D1FB6803F470127B68A0
:103650005B6A9A4201D0012300E000231846183724
:10366000BD4680BD00100240007000406000424234
:1036700080B584B000AF786039607B68002B01D1E1
:103680000123D0E06A4B1B6803F007033A689A42B3
:1036900010D9674B1B6823F0070265493B68134349
:1036A0000B60634B1B6803F007033A689A4201D032
:1036B0000123B8E07B681B6803F00203002B20D0D5
:1036C0007B681B6803F00403002B05D0594B5B6833
:1036D000584A43F4E06353607B681B6803F00803B7
:1036E000002B05D0534B5B68524A43F46053536040
:1036F000504B5B6823F0F0027B689B684D49134395
:103700004B607B681B6803F00103002B40D07B6893
:103710005B68012B07D1474B1B6803F40033002B78
:1037200015D101237FE07B685B68022B07D1414BF9
:103730001B6803F00073002B09D1012373E03D4B9C
:103740001B6803F00203002B01D101236BE0394B0E
:103750005B6823F003027B685B68364913434B6068
:10376000FEF72EF9F8600AE0FEF72AF90246FB6838
:10377000D31A41F28832934201D9032353E02D4BEF
:103780005B6803F00C027B685B689B009A42EBD19C
:10379000274B1B6803F007033A689A4210D2244B68
:1037A0001B6823F0070222493B6813430B60204B40
:1037B0001B6803F007033A689A4201D0012332E004
:1037C0007B681B6803F00403002B08D0194B5B686F
:1037D00023F4E0627B68DB68164913434B607B6827
:1037E0001B6803F00803002B09D0124B5B6823F41D
:1037F00060527B681B69DB000E4913434B6000F08D
:1038000021F802460B4B5B681B0903F00F030A49C2
:10381000CB5C22FA03F3094A1360094B1B68184674
:10382000FEF78CF8002318461037BD4680BD00BF58
:1038300000200240001002409473000800000020A5
:103840000400002080B487B000AF0023FB60002399
:10385000BB6000237B6100237B6000233B611E4B28
:103860005B68FB60FB6803F00C03042B02D0082BA1
:1038700003D027E0194B3B6127E0FB689B0C03F06A
:103880000F03174AD35C7B60FB6803F48033002B83
:1038900010D0114B5B685B0C03F00103114AD35C41
:1038A000BB607B680D4A02FB03F2BB68B2FBF3F31B
:1038B0007B6104E07B680C4A02FB03F37B617B695C
:1038C0003B6102E0054B3B6100BF3B6918461C377A
:1038D000BD4680BC704700BF0010024000127A0055
:1038E000AC730008BC73000800093D0080B400AF51
:1038F000024B1B681846BD4680BC70470000002084
:1039000080B500AFFFF7F2FF0246054B5B681B0A6C
:1039100003F007030349CB5C22FA03F3184680BD8A
:1039200000100240A473000880B500AFFFF7DEFF6F
:103930000246054B5B68DB0A03F007030349CB5CD7
:1039400022FA03F3184680BD00100240A473000859
:1039500080B485B000AF78600A4B1B680A4AA2FBAE
:1039600003235B0A7A6802FB03F3FB6000BFFB687A
:103970005A1EFA60002BF9D100BF00BF1437BD46B4
:1039800080BC704700000020D34D621080B582B02B
:1039900000AF78607B68002B01D1012342E07B6897
:1039A00093F84130DBB2002B06D17B68002283F80C
:1039B00040207868FDF73AFE7B68242283F8412096
:1039C0007B681B68DA687B681B6822F40052DA6047
:1039D000786800F063FD7B681B681A697B681B6868
:1039E00022F490421A617B681B685A697B681B68E5
:1039F00022F02A025A617B681B68DA687B681B68C0
:103A000042F40052DA607B6800225A647B6820220C
:103A100083F841207B68202283F842207B680022C3
:103A20005A63002318460837BD4680BD80B58AB06A
:103A300002AFF860B9603B601346FB8000237B61F6
:103A4000FB6893F84130DBB2202B75D1BB68002BAB
:103A500002D0FB88002B01D101236EE0FB6800221D
:103A60005A64FB68212283F84120FDF7A9FF7861A1
:103A7000FB68FA889A84FB68FA88DA84FB689B689A
:103A8000B3F5805F08D1FB681B69002B04D10023CC
:103A9000FB61BB68BB6103E0BB68FB610023BB61EA
:103AA0002EE03B6800937B6900228021F86800F0DB
:103AB00001FB0346002B05D0FB68202283F8412040
:103AC00003233AE0FB69002B0BD1BB691B881A4624
:103AD000FB681B68C2F308025A60BB690233BB6112
:103AE00007E0FB691A78FB681B685A60FB690133C1
:103AF000FB61FB68DB8C9BB2013B9AB2FB68DA840A
:103B0000FB68DB8C9BB2002BCBD13B6800937B69BD
:103B100000224021F86800F0CDFA0346002B05D0C2
:103B2000FB68202283F84120032306E0FB68202263
:103B300083F84120002300E0022318462037BD46C9
:103B400080BD000080B5BAB000AF78607B681B68AC
:103B50001B68C7F8E4307B681B68DB68C7F8E03097
:103B60007B681B685B69C7F8DC300023C7F8D83076
:103B70000023C7F8D430D7F8E43003F00F03C7F8B8
:103B8000D830D7F8D830002B0FD1D7F8E43003F075
:103B90002003002B09D0D7F8E03003F02003002BDE
:103BA00003D0786800F0BCFB5BE2D7F8D830002B7C
:103BB00000F0DE80D7F8DC3003F00103002B06D1E3
:103BC000D7F8E03003F49073002B00F0D180D7F8E1
:103BD000E43003F00103002B0BD0D7F8E03003F4FE
:103BE0008073002B05D07B685B6C43F001027B681F
:103BF0005A64D7F8E43003F00403002B0BD0D7F855
:103C0000DC3003F00103002B05D07B685B6C43F0D4
:103C100002027B685A64D7F8E43003F00203002BF9
:103C20000BD0D7F8DC3003F00103002B05D07B6804
:103C30005B6C43F004027B685A64D7F8E43003F00D
:103C40000803002B11D0D7F8E03003F02003002B3D
:103C500005D1D7F8DC3003F00103002B05D07B68D9
:103C60005B6C43F008027B685A647B685B6C002BDA
:103C700000F0F281D7F8E43003F02003002B08D0E5
:103C8000D7F8E03003F02003002B02D0786800F072
:103C900047FB7B681B685B6903F04003002B14BF84
:103CA00001230023DBB2C7F8D4307B685B6C03F0E0
:103CB0000803002B03D1D7F8D430002B4FD07868FD
:103CC00000F051FA7B681B685B6903F04003002B2E
:103CD00041D07B681B681433C7F89C30D7F89C3000
:103CE00053E8003FC7F89830D7F8983023F04003E6
:103CF000C7F8D0307B681B681433D7F8D020C7F8DA
:103D0000A820C7F8A430D7F8A410D7F8A82041E815
:103D10000023C7F8A030D7F8A030002BD9D17B689A
:103D2000DB6B002B13D07B68DB6B7E4A5A637B68AE
:103D3000DB6B1846FDF7BAFF0346002B16D07B68F5
:103D4000DB6B5B6B7A68D26B104698470EE0786845
:103D500000F09CF90AE0786800F098F906E07868CD
:103D600000F094F97B6800225A6475E100BF73E1AA
:103D70007B681B6B012B40F04F81D7F8E43003F0D8
:103D80001003002B00F04881D7F8E03003F0100357
:103D9000002B00F041810023BB607B681B681B681F
:103DA000BB607B681B685B68BB60BB687B681B682B
:103DB0005B6903F04003002B00F0B6807B68DB6B8F
:103DC0001B685B68A7F8BE30B7F8BE30002B00F068
:103DD00045817B689B8DB7F8BE209A4280F03E817A
:103DE0007B68B7F8BE20DA857B68DB6B9B69202B8C
:103DF00000F088807B681B680C33C7F88830D7F8E0
:103E0000883053E8003FC7F88430D7F8843023F473
:103E10008073C7F8B8307B681B680C33D7F8B820BC
:103E2000C7F89420C7F89030D7F89010D7F89420AE
:103E300041E80023C7F88C30D7F88C30002BD9D15B
:103E40007B681B6814337B677B6F53E8003F3B67DD
:103E50003B6F23F00103C7F8B4307B681B68143351
:103E6000D7F8B420C7F88020FB67F96FD7F8802017
:103E700041E80023BB67BB6F002BE1D17B681B6867
:103E800014333B663B6E53E8003FFB65FB6D23F04C
:103E90004003C7F8B0307B681B681433D7F8B020F4
:103EA000FA66BB66B96EFA6E41E800237B667B6EEC
:103EB000002BE3D17B68202283F842207B6800221C
:103EC0001A637B681B680C33FB64FB6C53E8003F90
:103ED000BB64BB6C23F01003C7F8AC307B681B6875
:103EE0000C33D7F8AC20BA657B65796DBA6D41E8C3
:103EF00000233B653B6D002BE3D17B68DB6B1846F1
:103F0000FDF799FE7B6802225A637B689A8D7B6875
:103F1000DB8D9BB2D31A9BB21946786800F0BFF8CC
:103F20009CE000BF2B4200087B689A8D7B68DB8D8C
:103F30009BB2D31AA7F8CE307B68DB8D9BB2002BE7
:103F400000F08E80B7F8CE30002B00F089807B68BF
:103F50001B680C33BB63BB6B53E8003F7B637B6B1D
:103F600023F49073C7F8C8307B681B680C33D7F80C
:103F7000C8207A643B64396C7A6C41E80023FB63A7
:103F8000FB6B002BE3D17B681B6814337B627B6A7D
:103F900053E8003F3B623B6A23F00103C7F8C4309B
:103FA0007B681B681433D7F8C4203A63FB62F96A54
:103FB0003A6B41E80023BB62BB6A002BE3D17B680C
:103FC000202283F842207B6800221A637B681B68EA
:103FD0000C333B613B6953E8003FFB60FB6823F017
:103FE0001003C7F8C0307B681B680C33D7F8C020BB
:103FF000FA61BB61B969FA6941E800237B617B69B9
:10400000002BE3D17B6802225A63B7F8CE30194601
:10401000786800F044F823E0D7F8E43003F0800338
:10402000002B09D0D7F8E03003F08003002B03D039
:10403000786800F00EF914E0D7F8E43003F040039C
:10404000002B0ED0D7F8E03003F04003002B08D04F
:10405000786800F04DF904E000BF02E000BF00E026
:1040600000BFE837BD4680BD80B483B000AF786044
:1040700000BF0C37BD4680BC704780B483B000AF32
:10408000786000BF0C37BD4680BC704780B483B0F9
:1040900000AF786000BF0C37BD4680BC704780B46D
:1040A00083B000AF78600B467B8000BF0C37BD4605
:1040B00080BC704780B586B000AFF860B9603B60E7
:1040C0001346FB713BE03B6AB3F1FF3F37D0FDF78E
:1040D00077FC02463B68D31A3A6A9A4202D33B6A9B
:1040E000002B01D103233AE0FB681B68DB6803F077
:1040F0000403002B23D0BB68802B20D0BB68402B4F
:104100001DD0FB681B681B6803F00803082B16D141
:1041100000237B61FB681B681B687B61FB681B6875
:104120005B687B617B69F86800F01DF8FB6808221A
:104130005A64FB68002283F8402001230FE0FB68EB
:104140001B681A68BB681340BA689A420CBF012307
:104150000023DBB21A46FB799A42B4D000231846FA
:104160001837BD4680BD80B495B000AF78607B68DD
:104170001B680C337B637B6B53E8003F3B633B6BFB
:1041800023F49073FB647B681B680C33FA6C3A640D
:10419000FB63F96B3A6C41E80023BB63BB6B002BFC
:1041A000E5D17B681B6814333B623B6A53E8003FF0
:1041B000FB61FB6923F00103BB647B681B6814335C
:1041C000BA6CFA62BB62B96AFA6A41E800237B62A0
:1041D0007B6A002BE5D17B681B6B012B19D17B68B7
:1041E0001B680C33FB60FB6853E8003FBB60BB6897
:1041F00023F010037B647B681B680C337A6CBA6114
:104200007B617969BA6941E800233B613B69002B16
:10421000E5D17B68202283F842207B6800221A6364
:1042200000BF5437BD4680BC704780B584B000AF36
:1042300078607B685B6AFB60FB680022DA85FB685C
:104240000022DA84F868FFF721FF00BF1037BD466F
:1042500080BD80B485B000AF78607B6893F8413052
:10426000DBB2212B3ED17B689B68B3F5805F14D114
:104270007B681B69002B10D17B681B6AFB60FB68A5
:104280001B881A467B681B68C2F308025A607B6869
:104290001B6A9A1C7B681A6208E07B681B6A591CBF
:1042A0007A6811621A787B681B685A607B68DB8CBD
:1042B0009BB2013B9BB27A681946D184002B0FD187
:1042C0007B681B68DA687B681B6822F08002DA6012
:1042D0007B681B68DA687B681B6842F04002DA6022
:1042E000002300E0022318461437BD4680BC704707
:1042F00080B582B000AF78607B681B68DA687B6845
:104300001B6822F04002DA607B68202283F841209B
:104310007868FFF7A9FE002318460837BD4680BD20
:1043200080B58CB000AF78607B6893F84230DBB228
:10433000222B40F0AE807B689B68B3F5805F17D17D
:104340007B681B69002B13D10023FB627B689B6A8F
:10435000BB627B681B685B689BB2C3F308039AB2BD
:10436000BB6A1A807B689B6A9A1C7B689A6226E00B
:104370007B689B6AFB620023BB627B689B68B3F52A
:10438000805F07D07B689B68002B0AD17B681B6924
:10439000002B06D17B681B685B68DAB2FB6A1A7077
:1043A00008E07B681B685B68DBB203F07F03DAB26E
:1043B000FB6A1A707B689B6A5A1C7B689A627B68EE
:1043C000DB8D9BB2013B9BB27A681946D185002BED
:1043D0005DD17B681B68DA687B681B6822F020026D
:1043E000DA607B681B68DA687B681B6822F480727D
:1043F000DA607B681B685A697B681B6822F00102DF
:104400005A617B68202283F842207B6800225A632D
:104410007B681B6B012B35D17B6800221A637B689C
:104420001B680C337B617B6953E8003F3B613B6950
:1044300023F010037B627B681B680C337A6A3A6254
:10444000FB61F9693A6A41E80023BB61BB69002B53
:10445000E5D17B681B681B6803F01003102B0AD1A1
:104460000023FB607B681B681B68FB607B681B6824
:104470005B68FB60FB687B689B8D19467868FFF77B
:104480000EFE02E07868FFF7F8FD002302E000234B
:1044900000E0022318463037BD4680BD80B584B0A9
:1044A00000AF78607B681B681B6923F440517B6810
:1044B000DA687B681B680A431A617B689A687B68C4
:1044C0001B691A437B685B691343BB607B681B688D
:1044D000DB6823F4B05323F00C037A681268B968E0
:1044E0000B43D3607B681B685B6923F440717B6876
:1044F0009A697B681B680A435A617B681B682C4A6F
:10450000934203D1FFF710FAF86002E0FFF7F8F9E1
:10451000F860FA6813469B0013449A001A447B68BB
:104520005B689B00B2FBF3F3224AA2FB03235B0907
:104530001901FA6813469B0013449A001A447B68D9
:104540005B689B00B2FBF3F21A4BA3FB02035B090F
:10455000642000FB03F3D31A1B013233154AA2FB7C
:1045600003235B0903F0F0031944FA6813469B0028
:1045700013449A001A447B685B689B00B2FBF3F219
:104580000C4BA3FB02035B09642000FB03F3D31A6B
:104590001B013233074AA2FB03235B0903F00F021E
:1045A0007B681B680A449A6000BF1037BD4680BD17
:1045B000003801401F85EB51014B1868704700BF60
:1045C0000C00002070B500260C4D0D4C641BA4108F
:1045D000A64209D102F0BAFE00260A4D0A4C641B1D
:1045E000A410A64205D170BD55F8043B984701368A
:1045F000EEE755F8043B98470136F2E7A477000848
:10460000A4770008A4770008A877000803460244AE
:10461000934200D1704703F8011BF9E7002B2DE905
:10462000F0471F46BBBF03F100431F4600232D2365
:1046300088B01446129A109D1370149BDDF84CA09C
:1046400023F02008B8F1460F05D0B8F1450F00D18E
:104650000135022300E0032307AA049206AACDE94C
:1046600002A2CDE9003522463B4600F0E5FCB8F158
:10467000470F064602D1119BDB0722D5B8F1460F42
:1046800006EB050910D13378302B0AD10022002324
:1046900020463946FCF788F918B9C5F10105CAF872
:1046A0000050DAF8003099440022002320463946B1
:1046B000FCF77AF908B1CDF81C903022079B4B45E6
:1046C00007D33046079B159A9B1B136008B0BDE8C3
:1046D000F087591C07911A70F0E70346F7B50029D7
:1046E00003F8022BB6BF2D222B2249420929427022
:1046F0002BDD0DF10704A4460A2791FBF7F60A46C5
:10470000A64607FB1615632A05F13005314604F16C
:10471000FF340EF8015CF0DC3031AEF1020504F834
:10472000011C2946441C61450AD30DF10902A2EB84
:104730000E02654588BF00221344181A03B0F0BD6D
:1047400011F8012B04F8012FEDE73023303183708D
:10475000C170031DF1E700002DE9F04F91B00C4648
:10476000DDF8688016461F46054601F053FA0368D7
:1047700018460993FBF7ECFC00230E93D8F80030A1
:104780000A90073323F0070303F1080294F8189006
:10479000D4F800B0C8F80020D3E90023C4E91223FC
:1047A000D4E9128A2AF000430B934FF0FF324046BF
:1047B0009C4B0B99FCF72AF970BB4FF0FF32404637
:1047C000984B0B99FCF704F930BB002200234046BC
:1047D0005146FCF7F3F810B12D2384F84330924B87
:1047E0009248B9F1470F94BF9846804603234FF093
:1047F000000A23612BF00403236033462146284638
:1048000000970FAA00F0D4F9013040F090804FF0EB
:10481000FF3011B0BDE8F08F424653464046514646
:10482000FCF7F4F848B1BAF1000FB8BF2D23804867
:10483000B8BF84F843307F4BD3E7636809F0DF01EA
:104840005A1C42D106236360002206920EAACDE9CB
:1048500004920DAA4BF4806303920DF13302CDE96B
:1048600001322360636842460093284653460B9109
:10487000FFF7D4FE0B99804647290D9908D1C81C33
:1048800002DB6368994240DDA9F102095FFA89F908
:10489000B9F1650F1FD84A46013904F150000D9156
:1048A000FFF71BFF0E9A82461318012A236102DCD0
:1048B0002268D20701D5013323619DF83330002BE4
:1048C0009BD02D2384F8433097E74729BCD1002B98
:1048D000BAD10123B7E7B9F1660F18D1002963688F
:1048E0000BDD216113B92268D00702D501330B44D7
:1048F00023614FF0000AA165DFE713B92268D207F0
:1049000001D50233F4E70123F2E74FF067090E9B6C
:10491000994205DB23682161D807EAD54B1CE7E7FC
:104920000029CCBF0122C1F102021344E0E7236851
:104930005A0507D42369424631462846B847013014
:104940002BD164E7B9F1650F40F2DD80D4E91201A3
:1049500000220023FCF728F8002833D00123314639
:104960002846354AB84701303FF451AFDDE90D2301
:104970009A4202DB2368D8070FD5DDE909233146C7
:104980002846B84701303FF442AF4FF0000804F129
:104990001A090E9B013B434509DC23689B0700F184
:1049A0000281E0680F9B9842B8BF184631E70123A7
:1049B0004A4631462846B84701303FF428AF08F14F
:1049C0000108E6E70D9B002B38DC01233146284621
:1049D000194AB84701303FF41AAFDDE90D231343FC
:1049E00002D12368D907D8D5DDE909233146284605
:1049F000B84701303FF40BAF4FF0000904F11A0A39
:104A00000D9B5B424B4501DC0E9B94E70123524614
:104A100031462846B84701303FF4F9AE09F10109A3
:104A2000EEE700BFFFFFEF7FC4730008C873000804
:104A3000D0730008CC730008D47300080E9AA36DDD
:104A40009A42A8BF1A46002A914637DC4FF0000B65
:104A500029EAE97904F11A02D4F858A0AAEB09036B
:104A60005B4533DCDDE90D239A423BDB2368DA0743
:104A700038D40E9A0D99A2EB0A03A2EB01099945CD
:104A8000A8BF9946B9F1000F34DC4FF0000829EABD
:104A9000E97904F11A0ADDE90D239B1AA3EB090356
:104AA00043457FF77AAF0123524631462846B8473F
:104AB00001303FF4ACAE08F10108ECE71346314693
:104AC00042462846B8470130C0D1A0E6012331460E
:104AD00028460B92B84701303FF499AE0B9A0BF180
:104AE000010BB9E73146DDE909232846B847013013
:104AF000BFD18CE64B463146284608EB0A02B84740
:104B00000130C2D183E60E9A012A01DCDB0737D5DA
:104B10000123424631462846B84701303FF477AE7C
:104B2000DDE9092331462846B84701303FF46FAE2E
:104B3000D4E9120100220023FBF736FFD8B90E9BFF
:104B400008F10102013B31462846B84701300ED139
:104B50005DE601234A4631462846B84701303FF416
:104B600056AE08F101080E9B013B4345F1DC53466C
:104B700004F15002E0E64FF0000804F11A09F2E7F0
:104B800001234246DFE701234A4631462846B8471B
:104B900001303FF43CAE08F10108E3680F995B1A5D
:104BA0004345F0DCFDE64FF0000804F11909F4E795
:104BB0002DE9F047164699468A680B6907469342E5
:104BC000B8BF1346336091F843200C46DDF82080CF
:104BD0000AB1013333602368990642BF3368023358
:104BE0003360256815F0060506D104F1190AE3685B
:104BF00032689B1AAB4228DC94F84320131E2268CB
:104C000018BF012392062DD44946384604F14302C9
:104C1000C047013020D02368E56803F00603042B69
:104C200018BF002532684FF00006A36808BFAD1A10
:104C3000226908BF25EAE5759342C4BF9B1AED18A7
:104C40001A34B5421AD1002008E0012352464946E1
:104C50003846C047013003D14FF0FF30BDE8F08740
:104C60000135C4E73020E11881F843005A1C94F85C
:104C700045102244023382F84310C5E7012322463F
:104C800049463846C0470130E6D00136D9E7000032
:104C90002DE9FF470C46277E9146782F80469A469D
:104CA0000C9904F1430207D8622F0AD8002F00F0B4
:104CB000D980582F00F0A48004F1420684F8427095
:104CC0003AE0A7F16303152BF6D801A050F823F0C2
:104CD000294D00083D4D0008B94C0008B94C0008AA
:104CE000B94C0008B94C00083D4D0008B94C00080B
:104CF000B94C0008B94C0008B94C00084B4E0008EC
:104D00006D4D00082D4E0008B94C0008B94C000844
:104D10006D4E0008B94C00086D4D0008B94C0008F4
:104D2000B94C0008354E00080B6804F142061A1D04
:104D30001B680A6084F842300123A4E025680868F3
:104D40002E0600F104030AD505680B60002D03DA76
:104D50002D236D4284F843300A235E4819E015F094
:104D6000400F05680B6018BF2DB2EFE70B68256890
:104D7000181D0860280601D51D6802E06906FBD5EC
:104D80001D886F2F0CBF08230A235248002184F886
:104D900043106668002EA8BF2168A660A4BF21F05A
:104DA000040121600DB9002E4DD01646B5FBF3F17C
:104DB00003FB1157C75D06F8017D2F46BB420D4628
:104DC000F4D9082B0BD12368DF0708D52369616864
:104DD0009942DEBF302306F8013C06F1FF36921BF4
:104DE00022614B4621464046CDF800A003AAFFF7BA
:104DF000DFFE01304CD14FF0FF3004B0BDE8F0874A
:104E0000344884F845700E68236856F8045B1F0622
:104E10000E6014D5D90744BF43F0200323601DB9A9
:104E2000236823F0200323601023AFE7236843F0B7
:104E3000200323607823284884F84530E3E75E06A2
:104E400048BFADB2E6E71646BBE70B6826681D1DF6
:104E500060690D6035061B6801D5186002E07106B7
:104E6000FBD51880002316462361BAE70B681A1D8C
:104E70000A601E6800213046626800F0D7FE08B163
:104E8000801B606063682361002384F84330A8E7D7
:104E90003246494640462369D0470130ABD02368AB
:104EA0009B0713D4E068039B9842B8BF1846A4E759
:104EB0000123324649464046D04701309BD0013558
:104EC000E36803995B1AAB42F2DCEBE7002504F1DF
:104ED0001906F5E7D6730008E77300080EB46FF003
:104EE000004100B59CB01DAB029006900791049163
:104EF0000848094953F8042B0591006802A9019359
:104F000001F042FB0022029B1A701CB05DF804EB1A
:104F100003B070470C0000200802FFFF2DE9F74F97
:104F200003690C690746A342C0F28380013C00F18B
:104F3000140501F1140805EB8403019358F824309B
:104F400055F8242001339A42B2FBF3F64FEA840B62
:104F500008EB840932D34FF0000E4046AC46F246CF
:104F600050F8042B93B206FB03E3120C4FEA134EE6
:104F700006FB02E29BB2AAEB0303DCF800A04FEAB7
:104F8000124E1FFA8AFA53441FFA82FADCF8002004
:104F90008145CAEB124202EB23429BB243EA024331
:104FA0004FEA224A4CF8043BDAD255F80B302BB9C1
:104FB000019B043B9D421A462FD33C61384601F0C9
:104FC000CBF8002825DB28464FF0000C013658F8B6
:104FD000041BD0F800E08BB2ACEB03031FFA8EF297
:104FE00013440A0CC2EB1E4202EB23429BB243EA7B
:104FF0000243C1454FEA224C40F8043BE7D255F842
:10500000242005EB840322B9043B9D421A460AD3AF
:105010003C61304603B0BDE8F08F1268043B002AC3
:10502000CBD1013CC6E71268043B002AF0D1013C19
:10503000EBE70020EEE700002DE9F04F16461F4693
:10504000446A99B00546CDE90467DDF8948074B9E7
:10505000102000F0E3FD0246686220B9EA21AE4B61
:10506000AE4801F0A1FBC0E901440460C4606B6A72
:10507000196851B15A68012393404A608B602846F1
:1050800000F030FE00226B6A1A603B1EAFBF0023A7
:10509000012223F000430593A8BFC8F80030DDF8D3
:1050A00014909F4BB8BFC8F8002033EA090319D108
:1050B00042F20F73249A1360C9F31303334300F0D1
:1050C0008085269B53B9974B22E0974B0893083372
:1050D000269A1360089819B0BDE8F08F914B089399
:1050E0000333F5E7DDE90434CDE90C34DDE90C01E7
:1050F00000220023FBF758FC804658B10123249A74
:105100001360269B002B00F0598588481860431EC9
:105110000893DFE716AB019317AB00932846DDE950
:105120000C2301F0C5F8C9F30A548246002C7ED046
:10513000DDE90C010D9BA4F2FF34C3F3130343F02C
:105140007F5141F44011CDF84C800022784BFBF7A1
:105150000BF86BA3D3E90023FBF7BEF96AA3D3E9ED
:105160000023FBF703F8064620460F46FBF74AF9F3
:1051700067A3D3E90023FBF7AFF902460B4630469D
:105180003946FAF7F3FF06460F46FBF755FC0022B7
:105190008146002330463946FBF710FC48B14846AB
:1051A000FBF730F932463B46FBF7FEFB08B909F145
:1051B000FF39B9F1160F57D8DDE90C015D4B03EB50
:1051C000C903D3E90023FBF7F9FB00284ED00023E5
:1051D00009F1FF390F93169B1C1B631E099349BFEE
:1051E000C4F1010300230693002354BF06930993DF
:1051F000B9F1000F3CDB099BCDF838904B44099383
:1052000000230A93229B092B6CD8052BC4BF043BB7
:105210002293229BC8BF0024A3F10203D8BF01241C
:10522000032B00F28B80DFE803F02D4F4D5BDDE9AF
:1052300016431C4404F23243202BC3BFC3F1400386
:1052400004F2124009FA03F3C3F12003C6BF26FAA1
:1052500000F0184306FA03F0FBF7C4F80123A1F1AC
:10526000F871013C139370E70123B3E70F90B2E7A5
:10527000069BA3EB09030693C9F100030A930023DD
:105280000E93BFE700230B93239B002B59DC4FF0B9
:10529000010B5B46CDF808B0CDF88CB00022686AEF
:1052A0004260042202F114069E4241684FD928460A
:1052B00000F0D8FC089000284DD102464FF4D5717B
:1052C0001D4BCDE60123DEE700230B93239B09EB67
:1052D000030B0BF10103012B0293B8BF0123DDE7A0
:1052E0000123F2E7012400230B9422934FF0FF3BAC
:1052F00000221223CDF808B02392CFE7AFF300804D
:1053000061436F63A787D23FB3C8608B288AC63FCB
:10531000FB799F501344D33F057400081C740008A8
:105320000000F07F01740008F8730008D5730008CE
:105330000000F83F187500087B74000801230B93E8
:10534000D4E7DDF88CB05B46CDF808B0A6E70131B4
:1053500041605200A6E76B6A089A1A60029B0E2B06
:1053600000F2A880002C00F0A580B9F1000F34DD18
:105370009A4A09F00F0302EBC30319F4807FD3E9C3
:105380000034CDE910344FEA291416D0DDE90C01C0
:10539000934B0327D3E90823FBF7C8F9CDE90401B0
:1053A00004F00F048E4E54B9DDE91023DDE9040149
:1053B000FBF7BCF9CDE9040129E00227F2E7E10798
:1053C00008D5DDE91001D6E90023FBF785F8CDE922
:1053D0001001013764100836E5E700F0A580DDE92B
:1053E0000C01C9F100047D4B04F00F0203EBC20372
:1053F000D3E90023FBF770F802270023CDE904016D
:10540000774E2411002C40F08480002BD2D10F9BCA
:10541000002B00F08B80DDE90434CDE91034DDE9A8
:10542000100100226F4BFBF7C9FA00287ED0029BC7
:10543000002B7BD0BBF1000F38DDDDE9100100222D
:10544000694BFBF749F85C46CDE9040109F1FF38E7
:1054500001373846FAF7D6FFDDE90423FBF73CF8BD
:105460000022624BFAF782FEA1F15076CDE91001DD
:105470001196002C5DD1DDE9040100225C4BFAF7A6
:1054800073FE02460B46CDE904233346109AFBF720
:10549000B3FA002840F09E82DDE90401109A06F17B
:1054A0000043FBF78BFA002840F09282DDE90C34D0
:1054B000CDE90434179B002BC0F25381B9F10E0FD4
:1054C00000F34F81454B03EBC903D3E90034CDE929
:1054D0000634239B002B80F2DB80029B002B00F321
:1054E000D78040F07482DDE906010022404BFAF7D4
:1054F000F3FFDDE90423FBF775FA029C264600283A
:1055000040F04A823123089F09F1010907F8013B65
:1055100046E2E20705D5D6E90023FAF7DDFF0123CD
:105520000137641008366DE7022770E7C846029C11
:105530008FE70899294B214412910B9903EBC4037F
:10554000DDE9106753E90223002955D000202949DD
:10555000FBF7ECF83B463246FAF706FECDE91001C0
:10556000089FDDE90401FBF767FA0446FAF74AFFF2
:1055700002460B46DDE90401FAF7F6FD02460B464A
:105580003034CDE90423DDE9102307F8014BFBF7A4
:1055900015FA002874D1DDE9042300201149FAF737
:1055A000E3FDDDE91023FBF709FA002840F0B6809F
:1055B000129B9F423FF47AAFDDE9100100220A4BB3
:1055C000FAF78AFF0022CDE91001DDE90401064B5C
:1055D000FAF782FFCDE90401C3E700BF18750008A0
:1055E000F07400080000F03F0000244000001C4060
:1055F000000014400000E03F30463946FAF76CFFE7
:10560000129BCDE91001089C1493DDE90401FBF71E
:1056100013FA1590FAF7F6FE02460B46DDE904018F
:10562000FAF7A2FD159B0646303304F8013B129BA6
:105630000F469C424FF0000224D1DDE91001B34B2C
:10564000FAF794FD02460B4630463946FBF7D4F98B
:10565000002862D1DDE910230020AC49FAF784FD6F
:1056600002460B4630463946FBF7A8F900283FF4BE
:105670001DAF149F7B1E149317F8013C302BF8D0FC
:10568000C1463AE0A24BFAF727FFCDE90401BCE797
:10569000089FDDE90623DDE90401FBF747F8FBF786
:1056A000CBF90446FAF7AEFEDDE90623FAF714FF5C
:1056B00004F130060B460246DDE90401FAF754FD19
:1056C00007F8016B089E029BBE1BB3423AD102460B
:1056D0000B46FAF74BFD02460B46CDE90223DDE906
:1056E0000623FBF789F958BBDDE90623DDE9020152
:1056F000FBF75AF908B1E10722D42846514600F0D9
:10570000F1FA00233B70249B09F101001860269BED
:10571000002B3FF4DFAC1F60DCE427463B461F460E
:1057200013F8012D392A07D1089A9A42F7D130226D
:10573000089908F101080A701A7801321A709FE777
:10574000C846EBE70022724BFAF7C6FE02460B464C
:10575000CDE9042300220023FBF726F9002898D086
:10576000CBE70B9A002A00F0CD80229A012A00F3A1
:10577000AF80139A002A00F0A78003F233430A9CFB
:10578000069F069A01211A440692099A28461A444D
:10579000099200F061FB0646002F0CDD099B002BEF
:1057A00009DDBB42A8BF3B46069AFF1AD21A0692F1
:1057B000099AD31A09930A9BF3B10B9B002B00F0B3
:1057C000A980002C10DD31462246284600F0FEFB61
:1057D000524601460646284600F054FB8046514694
:1057E000284600F07FFAC2460A9B1A1B04D0514695
:1057F000284600F0EBFB82460121284600F02CFBF6
:105800000E9B0446002B40F387801A46014628462B
:1058100000F0DCFB229B0446012B40F380804FF01C
:105820000008236904EB8303186900F0C7FAC0F18C
:105830002000099B184410F01F0000F09280C0F176
:105840002003042B40F38A80C0F11C00069B074410
:1058500003440693099B03440993069B002B05DD33
:1058600051461A46284600F00BFC8246099B002B45
:1058700005DD21461A46284600F002FC04460F9B2F
:10588000002B70D02146504600F066FC00286ADAF2
:10589000002351460A22284600F046FA0B9B824616
:1058A00009F1FF39002B00F09381314600230A22D1
:1058B000284600F039FABBF1000F064600F393804A
:1058C000229B022B57DC8EE0169BC3F1360356E772
:1058D000029B5C1E0A9BA342B7BF0A9B1C1BE21AD9
:1058E0000E9BBEBF0A949B180E93029BB8BF002468
:1058F000002BBBBF069B029A069F9F1AACBF029B60
:1059000000233EE70A9C069F0B9E45E70000E03F10
:10591000000024400A9A6AE7229B012B19DC049BB1
:10592000BBB9059BC3F313039BB9059B23F000434D
:105930001B0D1B0583B14FF00108069B0133069335
:10594000099B013309930E9B002B7FF46AAF012062
:105950006FE74FF00008F6E79846F4E73FF47DAFB5
:1059600018461C3072E7029B002B36DC229B022B70
:1059700033DDDDF808B0BBF1000F0DD121465B46E9
:105980000522284600F0D0F901460446504600F0B2
:10599000E3FB00283FF7B6AD239B089F6FEA03099E
:1059A0004FF000082146284600F09CF9002E3FF4F5
:1059B000A4AEB8F1000F05D0B04503D0414628464B
:1059C00000F090F93146284600F08CF995E6002465
:1059D0002646E1E7C146264694E50B9BDDF808B074
:1059E000002B00F0FC80002F05DD31463A462846AA
:1059F00000F046FB0646B8F1000F5CD028467168FF
:105A000000F030F9074628B9024640F2EA217E4B01
:105A1000FFF726BB326906F10C01023292000C300E
:105A200000F012F901223946284600F029FBB04661
:105A30000646089B01330293089B5B440A93049B30
:105A400003F001030993029B2146504603F1FF3BFB
:105A5000FFF764FA034641463033049050460B93F7
:105A600000F07AFB324606902146284600F090FB73
:105A7000C26807460B9B02BB0146504600F06CFB18
:105A800002460B9B39462846CDE90B3200F02AF935
:105A9000229B0C9A029F43EA0201099B0B430B9B3A
:105AA0000DD1392B27D0069A002A01DD049B313312
:105AB0008BF8003076E73046B9E70122E2E7069935
:105AC000002904DB229801430998014320D1002AD0
:105AD000EEDD514601222846029300F0D1FA21461C
